{
  "_format": "hh-sol-artifact-1",
  "contractName": "MerchantRegistry",
  "sourceName": "contracts/MerchantRegistry.sol",
  "abi": [
    {
      "inputs": [
        {
          "internalType": "address",
          "name": "_verifier",
          "type": "address"
        }
      ],
      "stateMutability": "nonpayable",
      "type": "constructor"
    },
    {
      "inputs": [
        {
          "internalType": "address",
          "name": "sender",
          "type": "address"
        },
        {
          "internalType": "uint256",
          "name": "tokenId",
          "type": "uint256"
        },
        {
          "internalType": "address",
          "name": "owner",
          "type": "address"
        }
      ],
      "name": "ERC721IncorrectOwner",
      "type": "error"
    },
    {
      "inputs": [
        {
          "internalType": "address",
          "name": "operator",
          "type": "address"
        },
        {
          "internalType": "uint256",
          "name": "tokenId",
          "type": "uint256"
        }
      ],
      "name": "ERC721InsufficientApproval",
      "type": "error"
    },
    {
      "inputs": [
        {
          "internalType": "address",
          "name": "approver",
          "type": "address"
        }
      ],
      "name": "ERC721InvalidApprover",
      "type": "error"
    },
    {
      "inputs": [
        {
          "internalType": "address",
          "name": "operator",
          "type": "address"
        }
      ],
      "name": "ERC721InvalidOperator",
      "type": "error"
    },
    {
      "inputs": [
        {
          "internalType": "address",
          "name": "owner",
          "type": "address"
        }
      ],
      "name": "ERC721InvalidOwner",
      "type": "error"
    },
    {
      "inputs": [
        {
          "internalType": "address",
          "name": "receiver",
          "type": "address"
        }
      ],
      "name": "ERC721InvalidReceiver",
      "type": "error"
    },
    {
      "inputs": [
        {
          "internalType": "address",
          "name": "sender",
          "type": "address"
        }
      ],
      "name": "ERC721InvalidSender",
      "type": "error"
    },
    {
      "inputs": [
        {
          "internalType": "uint256",
          "name": "tokenId",
          "type": "uint256"
        }
      ],
      "name": "ERC721NonexistentToken",
      "type": "error"
    },
    {
      "inputs": [
        {
          "internalType": "address",
          "name": "owner",
          "type": "address"
        }
      ],
      "name": "OwnableInvalidOwner",
      "type": "error"
    },
    {
      "inputs": [
        {
          "internalType": "address",
          "name": "account",
          "type": "address"
        }
      ],
      "name": "OwnableUnauthorizedAccount",
      "type": "error"
    },
    {
      "anonymous": false,
      "inputs": [
        {
          "indexed": true,
          "internalType": "address",
          "name": "owner",
          "type": "address"
        },
        {
          "indexed": true,
          "internalType": "address",
          "name": "approved",
          "type": "address"
        },
        {
          "indexed": true,
          "internalType": "uint256",
          "name": "tokenId",
          "type": "uint256"
        }
      ],
      "name": "Approval",
      "type": "event"
    },
    {
      "anonymous": false,
      "inputs": [
        {
          "indexed": true,
          "internalType": "address",
          "name": "owner",
          "type": "address"
        },
        {
          "indexed": true,
          "internalType": "address",
          "name": "operator",
          "type": "address"
        },
        {
          "indexed": false,
          "internalType": "bool",
          "name": "approved",
          "type": "bool"
        }
      ],
      "name": "ApprovalForAll",
      "type": "event"
    },
    {
      "anonymous": false,
      "inputs": [
        {
          "indexed": true,
          "internalType": "uint256",
          "name": "commitment",
          "type": "uint256"
        }
      ],
      "name": "CommitmentAdded",
      "type": "event"
    },
    {
      "anonymous": false,
      "inputs": [
        {
          "indexed": true,
          "internalType": "address",
          "name": "merchant",
          "type": "address"
        },
        {
          "indexed": true,
          "internalType": "uint256",
          "name": "tokenId",
          "type": "uint256"
        }
      ],
      "name": "MerchantRevoked",
      "type": "event"
    },
    {
      "anonymous": false,
      "inputs": [
        {
          "indexed": true,
          "internalType": "address",
          "name": "merchant",
          "type": "address"
        },
        {
          "indexed": true,
          "internalType": "uint256",
          "name": "tokenId",
          "type": "uint256"
        },
        {
          "indexed": false,
          "internalType": "uint256",
          "name": "nullifierHash",
          "type": "uint256"
        },
        {
          "indexed": false,
          "internalType": "uint256",
          "name": "tier",
          "type": "uint256"
        }
      ],
      "name": "MerchantVerified",
      "type": "event"
    },
    {
      "anonymous": false,
      "inputs": [
        {
          "indexed": true,
          "internalType": "address",
          "name": "previousOwner",
          "type": "address"
        },
        {
          "indexed": true,
          "internalType": "address",
          "name": "newOwner",
          "type": "address"
        }
      ],
      "name": "OwnershipTransferred",
      "type": "event"
    },
    {
      "anonymous": false,
      "inputs": [
        {
          "indexed": true,
          "internalType": "address",
          "name": "from",
          "type": "address"
        },
        {
          "indexed": true,
          "internalType": "address",
          "name": "to",
          "type": "address"
        },
        {
          "indexed": true,
          "internalType": "uint256",
          "name": "tokenId",
          "type": "uint256"
        }
      ],
      "name": "Transfer",
      "type": "event"
    },
    {
      "inputs": [
        {
          "internalType": "uint256",
          "name": "commitment",
          "type": "uint256"
        }
      ],
      "name": "addValidCommitment",
      "outputs": [],
      "stateMutability": "nonpayable",
      "type": "function"
    },
    {
      "inputs": [
        {
          "internalType": "address",
          "name": "to",
          "type": "address"
        },
        {
          "internalType": "uint256",
          "name": "tokenId",
          "type": "uint256"
        }
      ],
      "name": "approve",
      "outputs": [],
      "stateMutability": "nonpayable",
      "type": "function"
    },
    {
      "inputs": [
        {
          "internalType": "address",
          "name": "owner",
          "type": "address"
        }
      ],
      "name": "balanceOf",
      "outputs": [
        {
          "internalType": "uint256",
          "name": "",
          "type": "uint256"
        }
      ],
      "stateMutability": "view",
      "type": "function"
    },
    {
      "inputs": [
        {
          "internalType": "uint256",
          "name": "tokenId",
          "type": "uint256"
        }
      ],
      "name": "getApproved",
      "outputs": [
        {
          "internalType": "address",
          "name": "",
          "type": "address"
        }
      ],
      "stateMutability": "view",
      "type": "function"
    },
    {
      "inputs": [
        {
          "internalType": "address",
          "name": "merchant",
          "type": "address"
        }
      ],
      "name": "getMerchantTier",
      "outputs": [
        {
          "internalType": "uint256",
          "name": "",
          "type": "uint256"
        }
      ],
      "stateMutability": "view",
      "type": "function"
    },
    {
      "inputs": [
        {
          "internalType": "address",
          "name": "owner",
          "type": "address"
        },
        {
          "internalType": "address",
          "name": "operator",
          "type": "address"
        }
      ],
      "name": "isApprovedForAll",
      "outputs": [
        {
          "internalType": "bool",
          "name": "",
          "type": "bool"
        }
      ],
      "stateMutability": "view",
      "type": "function"
    },
    {
      "inputs": [
        {
          "internalType": "uint256",
          "name": "",
          "type": "uint256"
        }
      ],
      "name": "isNullifierUsed",
      "outputs": [
        {
          "internalType": "bool",
          "name": "",
          "type": "bool"
        }
      ],
      "stateMutability": "view",
      "type": "function"
    },
    {
      "inputs": [
        {
          "internalType": "uint256",
          "name": "",
          "type": "uint256"
        }
      ],
      "name": "isValidCommitment",
      "outputs": [
        {
          "internalType": "bool",
          "name": "",
          "type": "bool"
        }
      ],
      "stateMutability": "view",
      "type": "function"
    },
    {
      "inputs": [
        {
          "internalType": "uint256",
          "name": "",
          "type": "uint256"
        }
      ],
      "name": "merchantTier",
      "outputs": [
        {
          "internalType": "uint256",
          "name": "",
          "type": "uint256"
        }
      ],
      "stateMutability": "view",
      "type": "function"
    },
    {
      "inputs": [],
      "name": "name",
      "outputs": [
        {
          "internalType": "string",
          "name": "",
          "type": "string"
        }
      ],
      "stateMutability": "view",
      "type": "function"
    },
    {
      "inputs": [],
      "name": "owner",
      "outputs": [
        {
          "internalType": "address",
          "name": "",
          "type": "address"
        }
      ],
      "stateMutability": "view",
      "type": "function"
    },
    {
      "inputs": [
        {
          "internalType": "uint256",
          "name": "tokenId",
          "type": "uint256"
        }
      ],
      "name": "ownerOf",
      "outputs": [
        {
          "internalType": "address",
          "name": "",
          "type": "address"
        }
      ],
      "stateMutability": "view",
      "type": "function"
    },
    {
      "inputs": [],
      "name": "renounceOwnership",
      "outputs": [],
      "stateMutability": "nonpayable",
      "type": "function"
    },
    {
      "inputs": [
        {
          "internalType": "uint256",
          "name": "tokenId",
          "type": "uint256"
        }
      ],
      "name": "revokeMerchant",
      "outputs": [],
      "stateMutability": "nonpayable",
      "type": "function"
    },
    {
      "inputs": [
        {
          "internalType": "address",
          "name": "from",
          "type": "address"
        },
        {
          "internalType": "address",
          "name": "to",
          "type": "address"
        },
        {
          "internalType": "uint256",
          "name": "tokenId",
          "type": "uint256"
        }
      ],
      "name": "safeTransferFrom",
      "outputs": [],
      "stateMutability": "nonpayable",
      "type": "function"
    },
    {
      "inputs": [
        {
          "internalType": "address",
          "name": "from",
          "type": "address"
        },
        {
          "internalType": "address",
          "name": "to",
          "type": "address"
        },
        {
          "internalType": "uint256",
          "name": "tokenId",
          "type": "uint256"
        },
        {
          "internalType": "bytes",
          "name": "data",
          "type": "bytes"
        }
      ],
      "name": "safeTransferFrom",
      "outputs": [],
      "stateMutability": "nonpayable",
      "type": "function"
    },
    {
      "inputs": [
        {
          "internalType": "address",
          "name": "operator",
          "type": "address"
        },
        {
          "internalType": "bool",
          "name": "approved",
          "type": "bool"
        }
      ],
      "name": "setApprovalForAll",
      "outputs": [],
      "stateMutability": "nonpayable",
      "type": "function"
    },
    {
      "inputs": [
        {
          "internalType": "bytes4",
          "name": "interfaceId",
          "type": "bytes4"
        }
      ],
      "name": "supportsInterface",
      "outputs": [
        {
          "internalType": "bool",
          "name": "",
          "type": "bool"
        }
      ],
      "stateMutability": "view",
      "type": "function"
    },
    {
      "inputs": [],
      "name": "symbol",
      "outputs": [
        {
          "internalType": "string",
          "name": "",
          "type": "string"
        }
      ],
      "stateMutability": "view",
      "type": "function"
    },
    {
      "inputs": [
        {
          "internalType": "uint256",
          "name": "tokenId",
          "type": "uint256"
        }
      ],
      "name": "tokenURI",
      "outputs": [
        {
          "internalType": "string",
          "name": "",
          "type": "string"
        }
      ],
      "stateMutability": "view",
      "type": "function"
    },
    {
      "inputs": [
        {
          "internalType": "address",
          "name": "from",
          "type": "address"
        },
        {
          "internalType": "address",
          "name": "to",
          "type": "address"
        },
        {
          "internalType": "uint256",
          "name": "tokenId",
          "type": "uint256"
        }
      ],
      "name": "transferFrom",
      "outputs": [],
      "stateMutability": "nonpayable",
      "type": "function"
    },
    {
      "inputs": [
        {
          "internalType": "address",
          "name": "newOwner",
          "type": "address"
        }
      ],
      "name": "transferOwnership",
      "outputs": [],
      "stateMutability": "nonpayable",
      "type": "function"
    },
    {
      "inputs": [],
      "name": "verifier",
      "outputs": [
        {
          "internalType": "contract IVerifier",
          "name": "",
          "type": "address"
        }
      ],
      "stateMutability": "view",
      "type": "function"
    },
    {
      "inputs": [
        {
          "internalType": "uint256[2]",
          "name": "a",
          "type": "uint256[2]"
        },
        {
          "internalType": "uint256[2][2]",
          "name": "b",
          "type": "uint256[2][2]"
        },
        {
          "internalType": "uint256[2]",
          "name": "c",
          "type": "uint256[2]"
        },
        {
          "internalType": "uint256[3]",
          "name": "input",
          "type": "uint256[3]"
        }
      ],
      "name": "verifyAndMint",
      "outputs": [],
      "stateMutability": "nonpayable",
      "type": "function"
    }
  ],
  "bytecode": "0x60a060405234801562000010575f80fd5b506040516200367f3803806200367f8339818101604052810190620000369190620002b0565b336040518060400160405280601581526020017f486173684b6579204d65726368616e74205a4b494400000000000000000000008152506040518060400160405280600681526020017f484d5a4b49440000000000000000000000000000000000000000000000000000815250815f9081620000b3919062000544565b508060019081620000c5919062000544565b5050505f73ffffffffffffffffffffffffffffffffffffffff168173ffffffffffffffffffffffffffffffffffffffff16036200013b575f6040517f1e4fbdf700000000000000000000000000000000000000000000000000000000815260040162000132919062000639565b60405180910390fd5b6200014c816200018860201b60201c565b508073ffffffffffffffffffffffffffffffffffffffff1660808173ffffffffffffffffffffffffffffffffffffffff16815250505062000654565b5f60065f9054906101000a900473ffffffffffffffffffffffffffffffffffffffff1690508160065f6101000a81548173ffffffffffffffffffffffffffffffffffffffff021916908373ffffffffffffffffffffffffffffffffffffffff1602179055508173ffffffffffffffffffffffffffffffffffffffff168173ffffffffffffffffffffffffffffffffffffffff167f8be0079c531659141344cd1fd0a4f28419497f9722a3daafe3b4186f6b6457e060405160405180910390a35050565b5f80fd5b5f73ffffffffffffffffffffffffffffffffffffffff82169050919050565b5f6200027a826200024f565b9050919050565b6200028c816200026e565b811462000297575f80fd5b50565b5f81519050620002aa8162000281565b92915050565b5f60208284031215620002c857620002c76200024b565b5b5f620002d7848285016200029a565b91505092915050565b5f81519050919050565b7f4e487b71000000000000000000000000000000000000000000000000000000005f52604160045260245ffd5b7f4e487b71000000000000000000000000000000000000000000000000000000005f52602260045260245ffd5b5f60028204905060018216806200035c57607f821691505b60208210810362000372576200037162000317565b5b50919050565b5f819050815f5260205f209050919050565b5f6020601f8301049050919050565b5f82821b905092915050565b5f60088302620003d67fffffffffffffffffffffffffffffffffffffffffffffffffffffffffffffffff8262000399565b620003e2868362000399565b95508019841693508086168417925050509392505050565b5f819050919050565b5f819050919050565b5f6200042c620004266200042084620003fa565b62000403565b620003fa565b9050919050565b5f819050919050565b62000447836200040c565b6200045f620004568262000433565b848454620003a5565b825550505050565b5f90565b6200047562000467565b620004828184846200043c565b505050565b5b81811015620004a9576200049d5f826200046b565b60018101905062000488565b5050565b601f821115620004f857620004c28162000378565b620004cd846200038a565b81016020851015620004dd578190505b620004f5620004ec856200038a565b83018262000487565b50505b505050565b5f82821c905092915050565b5f6200051a5f1984600802620004fd565b1980831691505092915050565b5f62000534838362000509565b9150826002028217905092915050565b6200054f82620002e0565b67ffffffffffffffff8111156200056b576200056a620002ea565b5b62000577825462000344565b62000584828285620004ad565b5f60209050601f831160018114620005ba575f8415620005a5578287015190505b620005b1858262000527565b86555062000620565b601f198416620005ca8662000378565b5f5b82811015620005f357848901518255600182019150602085019450602081019050620005cc565b868310156200061357848901516200060f601f89168262000509565b8355505b6001600288020188555050505b505050505050565b62000633816200026e565b82525050565b5f6020820190506200064e5f83018462000628565b92915050565b60805161300b620006745f395f81816107770152610955015261300b5ff3fe608060405234801561000f575f80fd5b5060043610610156575f3560e01c8063715018a6116100c1578063c49455c11161007a578063c49455c1146103c0578063c6c0572d146103dc578063c87b56dd1461040c578063e985e9c51461043c578063f2fde38b1461046c578063f7e1f5451461048857610156565b8063715018a6146103125780638da5cb5b1461031c57806392a42fa91461033a57806395d89b411461036a578063a22cb46514610388578063b88d4fde146103a457610156565b80632b7ac3f3116101135780632b7ac3f31461024057806342842e0e1461025e57806356f59f681461027a5780636352211e146102965780636541f35a146102c657806370a08231146102e257610156565b806301ffc9a71461015a57806306fdde031461018a578063081812fc146101a8578063095ea7b3146101d857806322d9730c146101f457806323b872dd14610224575b5f80fd5b610174600480360381019061016f9190612023565b6104b8565b6040516101819190612068565b60405180910390f35b610192610599565b60405161019f919061210b565b60405180910390f35b6101c260048036038101906101bd919061215e565b610628565b6040516101cf91906121c8565b60405180910390f35b6101f260048036038101906101ed919061220b565b610643565b005b61020e6004803603810190610209919061215e565b610659565b60405161021b9190612068565b60405180910390f35b61023e60048036038101906102399190612249565b610676565b005b610248610775565b60405161025591906122f4565b60405180910390f35b61027860048036038101906102739190612249565b610799565b005b610294600480360381019061028f919061215e565b6107b8565b005b6102b060048036038101906102ab919061215e565b610833565b6040516102bd91906121c8565b60405180910390f35b6102e060048036038101906102db9190612597565b610844565b005b6102fc60048036038101906102f791906125fd565b610af1565b6040516103099190612637565b60405180910390f35b61031a610ba7565b005b610324610bba565b60405161033191906121c8565b60405180910390f35b610354600480360381019061034f91906125fd565b610be2565b6040516103619190612637565b60405180910390f35b610372610ce5565b60405161037f919061210b565b60405180910390f35b6103a2600480360381019061039d919061267a565b610d75565b005b6103be60048036038101906103b99190612768565b610d8b565b005b6103da60048036038101906103d5919061215e565b610db0565b005b6103f660048036038101906103f1919061215e565b610e11565b6040516104039190612068565b60405180910390f35b6104266004803603810190610421919061215e565b610e2e565b604051610433919061210b565b60405180910390f35b610456600480360381019061045191906127e8565b610e94565b6040516104639190612068565b60405180910390f35b610486600480360381019061048191906125fd565b610f22565b005b6104a2600480360381019061049d919061215e565b610fa6565b6040516104af9190612637565b60405180910390f35b5f7f80ac58cd000000000000000000000000000000000000000000000000000000007bffffffffffffffffffffffffffffffffffffffffffffffffffffffff1916827bffffffffffffffffffffffffffffffffffffffffffffffffffffffff1916148061058257507f5b5e139f000000000000000000000000000000000000000000000000000000007bffffffffffffffffffffffffffffffffffffffffffffffffffffffff1916827bffffffffffffffffffffffffffffffffffffffffffffffffffffffff1916145b80610592575061059182610fbb565b5b9050919050565b60605f80546105a790612853565b80601f01602080910402602001604051908101604052809291908181526020018280546105d390612853565b801561061e5780601f106105f55761010080835404028352916020019161061e565b820191905f5260205f20905b81548152906001019060200180831161060157829003601f168201915b5050505050905090565b5f61063282611024565b5061063c826110aa565b9050919050565b61065582826106506110e3565b6110ea565b5050565b6008602052805f5260405f205f915054906101000a900460ff1681565b5f73ffffffffffffffffffffffffffffffffffffffff168273ffffffffffffffffffffffffffffffffffffffff16036106e6575f6040517f64a0ae920000000000000000000000000000000000000000000000000000000081526004016106dd91906121c8565b60405180910390fd5b5f6106f983836106f46110e3565b6110fc565b90508373ffffffffffffffffffffffffffffffffffffffff168173ffffffffffffffffffffffffffffffffffffffff161461076f578382826040517f64283d7b00000000000000000000000000000000000000000000000000000000815260040161076693929190612883565b60405180910390fd5b50505050565b7f000000000000000000000000000000000000000000000000000000000000000081565b6107b383838360405180602001604052805f815250610d8b565b505050565b6107c06111c2565b5f6107ca82610833565b90506107d582611249565b5f60095f8481526020019081526020015f2081905550818173ffffffffffffffffffffffffffffffffffffffff167fb4dbbb0dad4bfb2fbe0a90f5c798f0c1b96ea92ffac4f47bef25713f75ba747460405160405180910390a35050565b5f61083d82611024565b9050919050565b5f815f60038110610858576108576128b8565b5b602002015190505f82600160038110610874576108736128b8565b5b602002015190505f836002600381106108905761088f6128b8565b5b6020020151905060085f8281526020019081526020015f205f9054906101000a900460ff166108f4576040517f08c379a00000000000000000000000000000000000000000000000000000000081526004016108eb90612955565b60405180910390fd5b60075f8481526020019081526020015f205f9054906101000a900460ff1615610952576040517f08c379a0000000000000000000000000000000000000000000000000000000008152600401610949906129bd565b60405180910390fd5b5f7f000000000000000000000000000000000000000000000000000000000000000073ffffffffffffffffffffffffffffffffffffffff166311479fea898989896040518563ffffffff1660e01b81526004016109b29493929190612bf5565b602060405180830381865afa1580156109cd573d5f803e3d5ffd5b505050506040513d601f19601f820116820180604052508101906109f19190612c4e565b905080610a33576040517f08c379a0000000000000000000000000000000000000000000000000000000008152600401610a2a90612cc3565b60405180910390fd5b600160075f8681526020019081526020015f205f6101000a81548160ff0219169083151502179055505f600a5f815480929190610a6f90612d0e565b9190505590508360095f8381526020019081526020015f2081905550610a9533826112cb565b803373ffffffffffffffffffffffffffffffffffffffff167fbb2f2be1001bc0d9d8027892763188986d0511d98da1c4d8584746726413957e8787604051610ade929190612d55565b60405180910390a3505050505050505050565b5f8073ffffffffffffffffffffffffffffffffffffffff168273ffffffffffffffffffffffffffffffffffffffff1603610b62575f6040517f89c62b64000000000000000000000000000000000000000000000000000000008152600401610b5991906121c8565b60405180910390fd5b60035f8373ffffffffffffffffffffffffffffffffffffffff1673ffffffffffffffffffffffffffffffffffffffff1681526020019081526020015f20549050919050565b610baf6111c2565b610bb85f6113be565b565b5f60065f9054906101000a900473ffffffffffffffffffffffffffffffffffffffff16905090565b5f80610bed83610af1565b03610bfa575f9050610ce0565b5f5b600a54811015610cdb573073ffffffffffffffffffffffffffffffffffffffff16636352211e826040518263ffffffff1660e01b8152600401610c3f9190612637565b602060405180830381865afa925050508015610c7957506040513d601f19601f82011682018060405250810190610c769190612d90565b60015b15610cce578373ffffffffffffffffffffffffffffffffffffffff168173ffffffffffffffffffffffffffffffffffffffff1603610ccc5760095f8381526020019081526020015f205492505050610ce0565b505b8080600101915050610bfc565b505f90505b919050565b606060018054610cf490612853565b80601f0160208091040260200160405190810160405280929190818152602001828054610d2090612853565b8015610d6b5780601f10610d4257610100808354040283529160200191610d6b565b820191905f5260205f20905b815481529060010190602001808311610d4e57829003601f168201915b5050505050905090565b610d87610d806110e3565b8383611481565b5050565b610d96848484610676565b610daa610da16110e3565b8585858561165a565b50505050565b610db86111c2565b600160085f8381526020019081526020015f205f6101000a81548160ff021916908315150217905550807f7512b117f383213addc5fddb3abb80607c58e77ecd1536d6ee6bf3dd78b3608960405160405180910390a250565b6007602052805f5260405f205f915054906101000a900460ff1681565b6060610e3982611024565b505f610e43611806565b90505f815111610e615760405180602001604052805f815250610e8c565b80610e6b8461181c565b604051602001610e7c929190612df5565b6040516020818303038152906040525b915050919050565b5f60055f8473ffffffffffffffffffffffffffffffffffffffff1673ffffffffffffffffffffffffffffffffffffffff1681526020019081526020015f205f8373ffffffffffffffffffffffffffffffffffffffff1673ffffffffffffffffffffffffffffffffffffffff1681526020019081526020015f205f9054906101000a900460ff16905092915050565b610f2a6111c2565b5f73ffffffffffffffffffffffffffffffffffffffff168173ffffffffffffffffffffffffffffffffffffffff1603610f9a575f6040517f1e4fbdf7000000000000000000000000000000000000000000000000000000008152600401610f9191906121c8565b60405180910390fd5b610fa3816113be565b50565b6009602052805f5260405f205f915090505481565b5f7f01ffc9a7000000000000000000000000000000000000000000000000000000007bffffffffffffffffffffffffffffffffffffffffffffffffffffffff1916827bffffffffffffffffffffffffffffffffffffffffffffffffffffffff1916149050919050565b5f8061102f836118e6565b90505f73ffffffffffffffffffffffffffffffffffffffff168173ffffffffffffffffffffffffffffffffffffffff16036110a157826040517f7e2732890000000000000000000000000000000000000000000000000000000081526004016110989190612637565b60405180910390fd5b80915050919050565b5f60045f8381526020019081526020015f205f9054906101000a900473ffffffffffffffffffffffffffffffffffffffff169050919050565b5f33905090565b6110f7838383600161191f565b505050565b5f80611107846118e6565b90505f73ffffffffffffffffffffffffffffffffffffffff168173ffffffffffffffffffffffffffffffffffffffff16148061116e57505f73ffffffffffffffffffffffffffffffffffffffff168573ffffffffffffffffffffffffffffffffffffffff16145b6111ad576040517f08c379a00000000000000000000000000000000000000000000000000000000081526004016111a490612e88565b60405180910390fd5b6111b8858585611ade565b9150509392505050565b6111ca6110e3565b73ffffffffffffffffffffffffffffffffffffffff166111e8610bba565b73ffffffffffffffffffffffffffffffffffffffff16146112475761120b6110e3565b6040517f118cdaa700000000000000000000000000000000000000000000000000000000815260040161123e91906121c8565b60405180910390fd5b565b5f6112555f835f6110fc565b90505f73ffffffffffffffffffffffffffffffffffffffff168173ffffffffffffffffffffffffffffffffffffffff16036112c757816040517f7e2732890000000000000000000000000000000000000000000000000000000081526004016112be9190612637565b60405180910390fd5b5050565b5f73ffffffffffffffffffffffffffffffffffffffff168273ffffffffffffffffffffffffffffffffffffffff160361133b575f6040517f64a0ae9200000000000000000000000000000000000000000000000000000000815260040161133291906121c8565b60405180910390fd5b5f61134783835f6110fc565b90505f73ffffffffffffffffffffffffffffffffffffffff168173ffffffffffffffffffffffffffffffffffffffff16146113b9575f6040517f73c6ac6e0000000000000000000000000000000000000000000000000000000081526004016113b091906121c8565b60405180910390fd5b505050565b5f60065f9054906101000a900473ffffffffffffffffffffffffffffffffffffffff1690508160065f6101000a81548173ffffffffffffffffffffffffffffffffffffffff021916908373ffffffffffffffffffffffffffffffffffffffff1602179055508173ffffffffffffffffffffffffffffffffffffffff168173ffffffffffffffffffffffffffffffffffffffff167f8be0079c531659141344cd1fd0a4f28419497f9722a3daafe3b4186f6b6457e060405160405180910390a35050565b5f73ffffffffffffffffffffffffffffffffffffffff168373ffffffffffffffffffffffffffffffffffffffff16036114f1575f6040517fa9fbf51f0000000000000000000000000000000000000000000000000000000081526004016114e891906121c8565b60405180910390fd5b5f73ffffffffffffffffffffffffffffffffffffffff168273ffffffffffffffffffffffffffffffffffffffff160361156157816040517f5b08ba1800000000000000000000000000000000000000000000000000000000815260040161155891906121c8565b60405180910390fd5b8060055f8573ffffffffffffffffffffffffffffffffffffffff1673ffffffffffffffffffffffffffffffffffffffff1681526020019081526020015f205f8473ffffffffffffffffffffffffffffffffffffffff1673ffffffffffffffffffffffffffffffffffffffff1681526020019081526020015f205f6101000a81548160ff0219169083151502179055508173ffffffffffffffffffffffffffffffffffffffff168373ffffffffffffffffffffffffffffffffffffffff167f17307eab39ab6107e8899845ad3d59bd9653f200f220920489ca2b5937696c318360405161164d9190612068565b60405180910390a3505050565b5f8373ffffffffffffffffffffffffffffffffffffffff163b11156117ff578273ffffffffffffffffffffffffffffffffffffffff1663150b7a02868685856040518563ffffffff1660e01b81526004016116b89493929190612ef8565b6020604051808303815f875af19250505080156116f357506040513d601f19601f820116820180604052508101906116f09190612f56565b60015b611774573d805f8114611721576040519150601f19603f3d011682016040523d82523d5f602084013e611726565b606091505b505f81510361176c57836040517f64a0ae9200000000000000000000000000000000000000000000000000000000815260040161176391906121c8565b60405180910390fd5b805160208201fd5b63150b7a0260e01b7bffffffffffffffffffffffffffffffffffffffffffffffffffffffff1916817bffffffffffffffffffffffffffffffffffffffffffffffffffffffff1916146117fd57836040517f64a0ae920000000000000000000000000000000000000000000000000000000081526004016117f491906121c8565b60405180910390fd5b505b5050505050565b606060405180602001604052805f815250905090565b60605f600161182a84611ce9565b0190505f8167ffffffffffffffff81111561184857611847612311565b5b6040519080825280601f01601f19166020018201604052801561187a5781602001600182028036833780820191505090505b5090505f82602083010190505b6001156118db578080600190039150507f3031323334353637383961626364656600000000000000000000000000000000600a86061a8153600a85816118d0576118cf612f81565b5b0494505f8503611887575b819350505050919050565b5f60025f8381526020019081526020015f205f9054906101000a900473ffffffffffffffffffffffffffffffffffffffff169050919050565b808061195757505f73ffffffffffffffffffffffffffffffffffffffff168273ffffffffffffffffffffffffffffffffffffffff1614155b15611a89575f61196684611024565b90505f73ffffffffffffffffffffffffffffffffffffffff168373ffffffffffffffffffffffffffffffffffffffff16141580156119d057508273ffffffffffffffffffffffffffffffffffffffff168173ffffffffffffffffffffffffffffffffffffffff1614155b80156119e357506119e18184610e94565b155b15611a2557826040517fa9fbf51f000000000000000000000000000000000000000000000000000000008152600401611a1c91906121c8565b60405180910390fd5b8115611a8757838573ffffffffffffffffffffffffffffffffffffffff168273ffffffffffffffffffffffffffffffffffffffff167f8c5be1e5ebec7d5bd14f71427d1e84f3dd0314c0f7b2291e5b200ac8c7c3b92560405160405180910390a45b505b8360045f8581526020019081526020015f205f6101000a81548173ffffffffffffffffffffffffffffffffffffffff021916908373ffffffffffffffffffffffffffffffffffffffff16021790555050505050565b5f80611ae9846118e6565b90505f73ffffffffffffffffffffffffffffffffffffffff168373ffffffffffffffffffffffffffffffffffffffff1614611b2a57611b29818486611e3a565b5b5f73ffffffffffffffffffffffffffffffffffffffff168173ffffffffffffffffffffffffffffffffffffffff1614611bb557611b695f855f8061191f565b600160035f8373ffffffffffffffffffffffffffffffffffffffff1673ffffffffffffffffffffffffffffffffffffffff1681526020019081526020015f205f82825403925050819055505b5f73ffffffffffffffffffffffffffffffffffffffff168573ffffffffffffffffffffffffffffffffffffffff1614611c3457600160035f8773ffffffffffffffffffffffffffffffffffffffff1673ffffffffffffffffffffffffffffffffffffffff1681526020019081526020015f205f82825401925050819055505b8460025f8681526020019081526020015f205f6101000a81548173ffffffffffffffffffffffffffffffffffffffff021916908373ffffffffffffffffffffffffffffffffffffffff160217905550838573ffffffffffffffffffffffffffffffffffffffff168273ffffffffffffffffffffffffffffffffffffffff167fddf252ad1be2c89b69c2b068fc378daa952ba7f163c4a11628f55a4df523b3ef60405160405180910390a4809150509392505050565b5f805f90507a184f03e93ff9f4daa797ed6e38ed64bf6a1f0100000000000000008310611d45577a184f03e93ff9f4daa797ed6e38ed64bf6a1f0100000000000000008381611d3b57611d3a612f81565b5b0492506040810190505b6d04ee2d6d415b85acef81000000008310611d82576d04ee2d6d415b85acef81000000008381611d7857611d77612f81565b5b0492506020810190505b662386f26fc100008310611db157662386f26fc100008381611da757611da6612f81565b5b0492506010810190505b6305f5e1008310611dda576305f5e1008381611dd057611dcf612f81565b5b0492506008810190505b6127108310611dff576127108381611df557611df4612f81565b5b0492506004810190505b60648310611e225760648381611e1857611e17612f81565b5b0492506002810190505b600a8310611e31576001810190505b80915050919050565b611e45838383611efd565b611ef8575f73ffffffffffffffffffffffffffffffffffffffff168373ffffffffffffffffffffffffffffffffffffffff1603611eb957806040517f7e273289000000000000000000000000000000000000000000000000000000008152600401611eb09190612637565b60405180910390fd5b81816040517f177e802f000000000000000000000000000000000000000000000000000000008152600401611eef929190612fae565b60405180910390fd5b505050565b5f8073ffffffffffffffffffffffffffffffffffffffff168373ffffffffffffffffffffffffffffffffffffffff1614158015611fb457508273ffffffffffffffffffffffffffffffffffffffff168473ffffffffffffffffffffffffffffffffffffffff161480611f755750611f748484610e94565b5b80611fb357508273ffffffffffffffffffffffffffffffffffffffff16611f9b836110aa565b73ffffffffffffffffffffffffffffffffffffffff16145b5b90509392505050565b5f604051905090565b5f80fd5b5f80fd5b5f7fffffffff0000000000000000000000000000000000000000000000000000000082169050919050565b61200281611fce565b811461200c575f80fd5b50565b5f8135905061201d81611ff9565b92915050565b5f6020828403121561203857612037611fc6565b5b5f6120458482850161200f565b91505092915050565b5f8115159050919050565b6120628161204e565b82525050565b5f60208201905061207b5f830184612059565b92915050565b5f81519050919050565b5f82825260208201905092915050565b5f5b838110156120b857808201518184015260208101905061209d565b5f8484015250505050565b5f601f19601f8301169050919050565b5f6120dd82612081565b6120e7818561208b565b93506120f781856020860161209b565b612100816120c3565b840191505092915050565b5f6020820190508181035f83015261212381846120d3565b905092915050565b5f819050919050565b61213d8161212b565b8114612147575f80fd5b50565b5f8135905061215881612134565b92915050565b5f6020828403121561217357612172611fc6565b5b5f6121808482850161214a565b91505092915050565b5f73ffffffffffffffffffffffffffffffffffffffff82169050919050565b5f6121b282612189565b9050919050565b6121c2816121a8565b82525050565b5f6020820190506121db5f8301846121b9565b92915050565b6121ea816121a8565b81146121f4575f80fd5b50565b5f81359050612205816121e1565b92915050565b5f806040838503121561222157612220611fc6565b5b5f61222e858286016121f7565b925050602061223f8582860161214a565b9150509250929050565b5f805f606084860312156122605761225f611fc6565b5b5f61226d868287016121f7565b935050602061227e868287016121f7565b925050604061228f8682870161214a565b9150509250925092565b5f819050919050565b5f6122bc6122b76122b284612189565b612299565b612189565b9050919050565b5f6122cd826122a2565b9050919050565b5f6122de826122c3565b9050919050565b6122ee816122d4565b82525050565b5f6020820190506123075f8301846122e5565b92915050565b5f80fd5b7f4e487b71000000000000000000000000000000000000000000000000000000005f52604160045260245ffd5b612347826120c3565b810181811067ffffffffffffffff8211171561236657612365612311565b5b80604052505050565b5f612378611fbd565b9050612384828261233e565b919050565b5f67ffffffffffffffff8211156123a3576123a2612311565b5b602082029050919050565b5f80fd5b5f6123c46123bf84612389565b61236f565b905080602084028301858111156123de576123dd6123ae565b5b835b8181101561240757806123f3888261214a565b8452602084019350506020810190506123e0565b5050509392505050565b5f82601f8301126124255761242461230d565b5b60026124328482856123b2565b91505092915050565b5f67ffffffffffffffff82111561245557612454612311565b5b602082029050919050565b5f61247261246d8461243b565b61236f565b9050806040840283018581111561248c5761248b6123ae565b5b835b818110156124b557806124a18882612411565b84526020840193505060408101905061248e565b5050509392505050565b5f82601f8301126124d3576124d261230d565b5b60026124e0848285612460565b91505092915050565b5f67ffffffffffffffff82111561250357612502612311565b5b602082029050919050565b5f61252061251b846124e9565b61236f565b9050806020840283018581111561253a576125396123ae565b5b835b81811015612563578061254f888261214a565b84526020840193505060208101905061253c565b5050509392505050565b5f82601f8301126125815761258061230d565b5b600361258e84828561250e565b91505092915050565b5f805f8061016085870312156125b0576125af611fc6565b5b5f6125bd87828801612411565b94505060406125ce878288016124bf565b93505060c06125df87828801612411565b9250506101006125f18782880161256d565b91505092959194509250565b5f6020828403121561261257612611611fc6565b5b5f61261f848285016121f7565b91505092915050565b6126318161212b565b82525050565b5f60208201905061264a5f830184612628565b92915050565b6126598161204e565b8114612663575f80fd5b50565b5f8135905061267481612650565b92915050565b5f80604083850312156126905761268f611fc6565b5b5f61269d858286016121f7565b92505060206126ae85828601612666565b9150509250929050565b5f80fd5b5f67ffffffffffffffff8211156126d6576126d5612311565b5b6126df826120c3565b9050602081019050919050565b828183375f83830152505050565b5f61270c612707846126bc565b61236f565b905082815260208101848484011115612728576127276126b8565b5b6127338482856126ec565b509392505050565b5f82601f83011261274f5761274e61230d565b5b813561275f8482602086016126fa565b91505092915050565b5f805f80608085870312156127805761277f611fc6565b5b5f61278d878288016121f7565b945050602061279e878288016121f7565b93505060406127af8782880161214a565b925050606085013567ffffffffffffffff8111156127d0576127cf611fca565b5b6127dc8782880161273b565b91505092959194509250565b5f80604083850312156127fe576127fd611fc6565b5b5f61280b858286016121f7565b925050602061281c858286016121f7565b9150509250929050565b7f4e487b71000000000000000000000000000000000000000000000000000000005f52602260045260245ffd5b5f600282049050600182168061286a57607f821691505b60208210810361287d5761287c612826565b5b50919050565b5f6060820190506128965f8301866121b9565b6128a36020830185612628565b6128b060408301846121b9565b949350505050565b7f4e487b71000000000000000000000000000000000000000000000000000000005f52603260045260245ffd5b7f496e76616c6964206f7220756e6b6e6f776e204b594320636f6d6d69746d656e5f8201527f7400000000000000000000000000000000000000000000000000000000000000602082015250565b5f61293f60218361208b565b915061294a826128e5565b604082019050919050565b5f6020820190508181035f83015261296c81612933565b9050919050565b7f4b59432063726564656e7469616c20616c7265616479207573656400000000005f82015250565b5f6129a7601b8361208b565b91506129b282612973565b602082019050919050565b5f6020820190508181035f8301526129d48161299b565b9050919050565b5f60029050919050565b5f81905092915050565b5f819050919050565b612a018161212b565b82525050565b5f612a1283836129f8565b60208301905092915050565b5f602082019050919050565b612a33816129db565b612a3d81846129e5565b9250612a48826129ef565b805f5b83811015612a78578151612a5f8782612a07565b9650612a6a83612a1e565b925050600181019050612a4b565b505050505050565b5f60029050919050565b5f81905092915050565b5f819050919050565b5f81905092915050565b612ab0816129db565b612aba8184612a9d565b9250612ac5826129ef565b805f5b83811015612af5578151612adc8782612a07565b9650612ae783612a1e565b925050600181019050612ac8565b505050505050565b5f612b088383612aa7565b60408301905092915050565b5f602082019050919050565b612b2981612a80565b612b338184612a8a565b9250612b3e82612a94565b805f5b83811015612b6e578151612b558782612afd565b9650612b6083612b14565b925050600181019050612b41565b505050505050565b5f60039050919050565b5f81905092915050565b5f819050919050565b5f602082019050919050565b612ba881612b76565b612bb28184612b80565b9250612bbd82612b8a565b805f5b83811015612bed578151612bd48782612a07565b9650612bdf83612b93565b925050600181019050612bc0565b505050505050565b5f61016082019050612c095f830187612a2a565b612c166040830186612b20565b612c2360c0830185612a2a565b612c31610100830184612b9f565b95945050505050565b5f81519050612c4881612650565b92915050565b5f60208284031215612c6357612c62611fc6565b5b5f612c7084828501612c3a565b91505092915050565b7f496e76616c6964205a4b2070726f6f66000000000000000000000000000000005f82015250565b5f612cad60108361208b565b9150612cb882612c79565b602082019050919050565b5f6020820190508181035f830152612cda81612ca1565b9050919050565b7f4e487b71000000000000000000000000000000000000000000000000000000005f52601160045260245ffd5b5f612d188261212b565b91507fffffffffffffffffffffffffffffffffffffffffffffffffffffffffffffffff8203612d4a57612d49612ce1565b5b600182019050919050565b5f604082019050612d685f830185612628565b612d756020830184612628565b9392505050565b5f81519050612d8a816121e1565b92915050565b5f60208284031215612da557612da4611fc6565b5b5f612db284828501612d7c565b91505092915050565b5f81905092915050565b5f612dcf82612081565b612dd98185612dbb565b9350612de981856020860161209b565b80840191505092915050565b5f612e008285612dc5565b9150612e0c8284612dc5565b91508190509392505050565b7f536f756c626f756e6420746f6b656e3a207472616e73666572206e6f7420616c5f8201527f6c6f776564000000000000000000000000000000000000000000000000000000602082015250565b5f612e7260258361208b565b9150612e7d82612e18565b604082019050919050565b5f6020820190508181035f830152612e9f81612e66565b9050919050565b5f81519050919050565b5f82825260208201905092915050565b5f612eca82612ea6565b612ed48185612eb0565b9350612ee481856020860161209b565b612eed816120c3565b840191505092915050565b5f608082019050612f0b5f8301876121b9565b612f1860208301866121b9565b612f256040830185612628565b8181036060830152612f378184612ec0565b905095945050505050565b5f81519050612f5081611ff9565b92915050565b5f60208284031215612f6b57612f6a611fc6565b5b5f612f7884828501612f42565b91505092915050565b7f4e487b71000000000000000000000000000000000000000000000000000000005f52601260045260245ffd5b5f604082019050612fc15f8301856121b9565b612fce6020830184612628565b939250505056fea2646970667358221220b7b767e41912b1235a802cb173203cf17ef0762e83c4bf80a5fb35e955d4d60b64736f6c63430008180033",
  "linkReferences": {},
  "deployedLinkReferences": {}
}