{
  "_format": "hh-sol-artifact-1",
  "contractName": "MerchantRegistry",
  "sourceName": "contracts/MerchantRegistry.sol",
  "abi": [
    {
      "inputs": [
        {
          "internalType": "address",
          "name": "_verifier",
          "type": "address"
        }
      ],
      "stateMutability": "nonpayable",
      "type": "constructor"
    },
    {
      "inputs": [
        {
          "internalType": "address",
          "name": "sender",
          "type": "address"
        },
        {
          "internalType": "uint256",
          "name": "tokenId",
          "type": "uint256"
        },
        {
          "internalType": "address",
          "name": "owner",
          "type": "address"
        }
      ],
      "name": "ERC721IncorrectOwner",
      "type": "error"
    },
    {
      "inputs": [
        {
          "internalType": "address",
          "name": "operator",
          "type": "address"
        },
        {
          "internalType": "uint256",
          "name": "tokenId",
          "type": "uint256"
        }
      ],
      "name": "ERC721InsufficientApproval",
      "type": "error"
    },
    {
      "inputs": [
        {
          "internalType": "address",
          "name": "approver",
          "type": "address"
        }
      ],
      "name": "ERC721InvalidApprover",
      "type": "error"
    },
    {
      "inputs": [
        {
          "internalType": "address",
          "name": "operator",
          "type": "address"
        }
      ],
      "name": "ERC721InvalidOperator",
      "type": "error"
    },
    {
      "inputs": [
        {
          "internalType": "address",
          "name": "owner",
          "type": "address"
        }
      ],
      "name": "ERC721InvalidOwner",
      "type": "error"
    },
    {
      "inputs": [
        {
          "internalType": "address",
          "name": "receiver",
          "type": "address"
        }
      ],
      "name": "ERC721InvalidReceiver",
      "type": "error"
    },
    {
      "inputs": [
        {
          "internalType": "address",
          "name": "sender",
          "type": "address"
        }
      ],
      "name": "ERC721InvalidSender",
      "type": "error"
    },
    {
      "inputs": [
        {
          "internalType": "uint256",
          "name": "tokenId",
          "type": "uint256"
        }
      ],
      "name": "ERC721NonexistentToken",
      "type": "error"
    },
    {
      "inputs": [
        {
          "internalType": "address",
          "name": "owner",
          "type": "address"
        }
      ],
      "name": "OwnableInvalidOwner",
      "type": "error"
    },
    {
      "inputs": [
        {
          "internalType": "address",
          "name": "account",
          "type": "address"
        }
      ],
      "name": "OwnableUnauthorizedAccount",
      "type": "error"
    },
    {
      "anonymous": false,
      "inputs": [
        {
          "indexed": true,
          "internalType": "address",
          "name": "owner",
          "type": "address"
        },
        {
          "indexed": true,
          "internalType": "address",
          "name": "approved",
          "type": "address"
        },
        {
          "indexed": true,
          "internalType": "uint256",
          "name": "tokenId",
          "type": "uint256"
        }
      ],
      "name": "Approval",
      "type": "event"
    },
    {
      "anonymous": false,
      "inputs": [
        {
          "indexed": true,
          "internalType": "address",
          "name": "owner",
          "type": "address"
        },
        {
          "indexed": true,
          "internalType": "address",
          "name": "operator",
          "type": "address"
        },
        {
          "indexed": false,
          "internalType": "bool",
          "name": "approved",
          "type": "bool"
        }
      ],
      "name": "ApprovalForAll",
      "type": "event"
    },
    {
      "anonymous": false,
      "inputs": [
        {
          "indexed": true,
          "internalType": "uint256",
          "name": "commitment",
          "type": "uint256"
        }
      ],
      "name": "CommitmentAdded",
      "type": "event"
    },
    {
      "anonymous": false,
      "inputs": [
        {
          "indexed": true,
          "internalType": "address",
          "name": "merchant",
          "type": "address"
        },
        {
          "indexed": true,
          "internalType": "uint256",
          "name": "tokenId",
          "type": "uint256"
        },
        {
          "indexed": false,
          "internalType": "uint256",
          "name": "nullifierHash",
          "type": "uint256"
        }
      ],
      "name": "MerchantVerified",
      "type": "event"
    },
    {
      "anonymous": false,
      "inputs": [
        {
          "indexed": true,
          "internalType": "address",
          "name": "previousOwner",
          "type": "address"
        },
        {
          "indexed": true,
          "internalType": "address",
          "name": "newOwner",
          "type": "address"
        }
      ],
      "name": "OwnershipTransferred",
      "type": "event"
    },
    {
      "anonymous": false,
      "inputs": [
        {
          "indexed": true,
          "internalType": "address",
          "name": "from",
          "type": "address"
        },
        {
          "indexed": true,
          "internalType": "address",
          "name": "to",
          "type": "address"
        },
        {
          "indexed": true,
          "internalType": "uint256",
          "name": "tokenId",
          "type": "uint256"
        }
      ],
      "name": "Transfer",
      "type": "event"
    },
    {
      "inputs": [
        {
          "internalType": "uint256",
          "name": "commitment",
          "type": "uint256"
        }
      ],
      "name": "addValidCommitment",
      "outputs": [],
      "stateMutability": "nonpayable",
      "type": "function"
    },
    {
      "inputs": [
        {
          "internalType": "address",
          "name": "to",
          "type": "address"
        },
        {
          "internalType": "uint256",
          "name": "tokenId",
          "type": "uint256"
        }
      ],
      "name": "approve",
      "outputs": [],
      "stateMutability": "nonpayable",
      "type": "function"
    },
    {
      "inputs": [
        {
          "internalType": "address",
          "name": "owner",
          "type": "address"
        }
      ],
      "name": "balanceOf",
      "outputs": [
        {
          "internalType": "uint256",
          "name": "",
          "type": "uint256"
        }
      ],
      "stateMutability": "view",
      "type": "function"
    },
    {
      "inputs": [
        {
          "internalType": "uint256",
          "name": "tokenId",
          "type": "uint256"
        }
      ],
      "name": "getApproved",
      "outputs": [
        {
          "internalType": "address",
          "name": "",
          "type": "address"
        }
      ],
      "stateMutability": "view",
      "type": "function"
    },
    {
      "inputs": [
        {
          "internalType": "address",
          "name": "owner",
          "type": "address"
        },
        {
          "internalType": "address",
          "name": "operator",
          "type": "address"
        }
      ],
      "name": "isApprovedForAll",
      "outputs": [
        {
          "internalType": "bool",
          "name": "",
          "type": "bool"
        }
      ],
      "stateMutability": "view",
      "type": "function"
    },
    {
      "inputs": [
        {
          "internalType": "uint256",
          "name": "",
          "type": "uint256"
        }
      ],
      "name": "isNullifierUsed",
      "outputs": [
        {
          "internalType": "bool",
          "name": "",
          "type": "bool"
        }
      ],
      "stateMutability": "view",
      "type": "function"
    },
    {
      "inputs": [
        {
          "internalType": "uint256",
          "name": "",
          "type": "uint256"
        }
      ],
      "name": "isValidCommitment",
      "outputs": [
        {
          "internalType": "bool",
          "name": "",
          "type": "bool"
        }
      ],
      "stateMutability": "view",
      "type": "function"
    },
    {
      "inputs": [],
      "name": "name",
      "outputs": [
        {
          "internalType": "string",
          "name": "",
          "type": "string"
        }
      ],
      "stateMutability": "view",
      "type": "function"
    },
    {
      "inputs": [],
      "name": "owner",
      "outputs": [
        {
          "internalType": "address",
          "name": "",
          "type": "address"
        }
      ],
      "stateMutability": "view",
      "type": "function"
    },
    {
      "inputs": [
        {
          "internalType": "uint256",
          "name": "tokenId",
          "type": "uint256"
        }
      ],
      "name": "ownerOf",
      "outputs": [
        {
          "internalType": "address",
          "name": "",
          "type": "address"
        }
      ],
      "stateMutability": "view",
      "type": "function"
    },
    {
      "inputs": [],
      "name": "renounceOwnership",
      "outputs": [],
      "stateMutability": "nonpayable",
      "type": "function"
    },
    {
      "inputs": [
        {
          "internalType": "address",
          "name": "from",
          "type": "address"
        },
        {
          "internalType": "address",
          "name": "to",
          "type": "address"
        },
        {
          "internalType": "uint256",
          "name": "tokenId",
          "type": "uint256"
        }
      ],
      "name": "safeTransferFrom",
      "outputs": [],
      "stateMutability": "nonpayable",
      "type": "function"
    },
    {
      "inputs": [
        {
          "internalType": "address",
          "name": "from",
          "type": "address"
        },
        {
          "internalType": "address",
          "name": "to",
          "type": "address"
        },
        {
          "internalType": "uint256",
          "name": "tokenId",
          "type": "uint256"
        },
        {
          "internalType": "bytes",
          "name": "data",
          "type": "bytes"
        }
      ],
      "name": "safeTransferFrom",
      "outputs": [],
      "stateMutability": "nonpayable",
      "type": "function"
    },
    {
      "inputs": [
        {
          "internalType": "address",
          "name": "operator",
          "type": "address"
        },
        {
          "internalType": "bool",
          "name": "approved",
          "type": "bool"
        }
      ],
      "name": "setApprovalForAll",
      "outputs": [],
      "stateMutability": "nonpayable",
      "type": "function"
    },
    {
      "inputs": [
        {
          "internalType": "bytes4",
          "name": "interfaceId",
          "type": "bytes4"
        }
      ],
      "name": "supportsInterface",
      "outputs": [
        {
          "internalType": "bool",
          "name": "",
          "type": "bool"
        }
      ],
      "stateMutability": "view",
      "type": "function"
    },
    {
      "inputs": [],
      "name": "symbol",
      "outputs": [
        {
          "internalType": "string",
          "name": "",
          "type": "string"
        }
      ],
      "stateMutability": "view",
      "type": "function"
    },
    {
      "inputs": [
        {
          "internalType": "uint256",
          "name": "tokenId",
          "type": "uint256"
        }
      ],
      "name": "tokenURI",
      "outputs": [
        {
          "internalType": "string",
          "name": "",
          "type": "string"
        }
      ],
      "stateMutability": "view",
      "type": "function"
    },
    {
      "inputs": [
        {
          "internalType": "address",
          "name": "from",
          "type": "address"
        },
        {
          "internalType": "address",
          "name": "to",
          "type": "address"
        },
        {
          "internalType": "uint256",
          "name": "tokenId",
          "type": "uint256"
        }
      ],
      "name": "transferFrom",
      "outputs": [],
      "stateMutability": "nonpayable",
      "type": "function"
    },
    {
      "inputs": [
        {
          "internalType": "address",
          "name": "newOwner",
          "type": "address"
        }
      ],
      "name": "transferOwnership",
      "outputs": [],
      "stateMutability": "nonpayable",
      "type": "function"
    },
    {
      "inputs": [],
      "name": "verifier",
      "outputs": [
        {
          "internalType": "contract IVerifier",
          "name": "",
          "type": "address"
        }
      ],
      "stateMutability": "view",
      "type": "function"
    },
    {
      "inputs": [
        {
          "internalType": "uint256[2]",
          "name": "a",
          "type": "uint256[2]"
        },
        {
          "internalType": "uint256[2][2]",
          "name": "b",
          "type": "uint256[2][2]"
        },
        {
          "internalType": "uint256[2]",
          "name": "c",
          "type": "uint256[2]"
        },
        {
          "internalType": "uint256[2]",
          "name": "input",
          "type": "uint256[2]"
        }
      ],
      "name": "verifyAndMint",
      "outputs": [],
      "stateMutability": "nonpayable",
      "type": "function"
    }
  ],
  "bytecode": "0x60a060405234801562000010575f80fd5b5060405162003205380380620032058339818101604052810190620000369190620002b0565b336040518060400160405280601581526020017f486173684b6579204d65726368616e74205a4b494400000000000000000000008152506040518060400160405280600681526020017f484d5a4b49440000000000000000000000000000000000000000000000000000815250815f9081620000b3919062000544565b508060019081620000c5919062000544565b5050505f73ffffffffffffffffffffffffffffffffffffffff168173ffffffffffffffffffffffffffffffffffffffff16036200013b575f6040517f1e4fbdf700000000000000000000000000000000000000000000000000000000815260040162000132919062000639565b60405180910390fd5b6200014c816200018860201b60201c565b508073ffffffffffffffffffffffffffffffffffffffff1660808173ffffffffffffffffffffffffffffffffffffffff16815250505062000654565b5f60065f9054906101000a900473ffffffffffffffffffffffffffffffffffffffff1690508160065f6101000a81548173ffffffffffffffffffffffffffffffffffffffff021916908373ffffffffffffffffffffffffffffffffffffffff1602179055508173ffffffffffffffffffffffffffffffffffffffff168173ffffffffffffffffffffffffffffffffffffffff167f8be0079c531659141344cd1fd0a4f28419497f9722a3daafe3b4186f6b6457e060405160405180910390a35050565b5f80fd5b5f73ffffffffffffffffffffffffffffffffffffffff82169050919050565b5f6200027a826200024f565b9050919050565b6200028c816200026e565b811462000297575f80fd5b50565b5f81519050620002aa8162000281565b92915050565b5f60208284031215620002c857620002c76200024b565b5b5f620002d7848285016200029a565b91505092915050565b5f81519050919050565b7f4e487b71000000000000000000000000000000000000000000000000000000005f52604160045260245ffd5b7f4e487b71000000000000000000000000000000000000000000000000000000005f52602260045260245ffd5b5f60028204905060018216806200035c57607f821691505b60208210810362000372576200037162000317565b5b50919050565b5f819050815f5260205f209050919050565b5f6020601f8301049050919050565b5f82821b905092915050565b5f60088302620003d67fffffffffffffffffffffffffffffffffffffffffffffffffffffffffffffffff8262000399565b620003e2868362000399565b95508019841693508086168417925050509392505050565b5f819050919050565b5f819050919050565b5f6200042c620004266200042084620003fa565b62000403565b620003fa565b9050919050565b5f819050919050565b62000447836200040c565b6200045f620004568262000433565b848454620003a5565b825550505050565b5f90565b6200047562000467565b620004828184846200043c565b505050565b5b81811015620004a9576200049d5f826200046b565b60018101905062000488565b5050565b601f821115620004f857620004c28162000378565b620004cd846200038a565b81016020851015620004dd578190505b620004f5620004ec856200038a565b83018262000487565b50505b505050565b5f82821c905092915050565b5f6200051a5f1984600802620004fd565b1980831691505092915050565b5f62000534838362000509565b9150826002028217905092915050565b6200054f82620002e0565b67ffffffffffffffff8111156200056b576200056a620002ea565b5b62000577825462000344565b62000584828285620004ad565b5f60209050601f831160018114620005ba575f8415620005a5578287015190505b620005b1858262000527565b86555062000620565b601f198416620005ca8662000378565b5f5b82811015620005f357848901518255600182019150602085019450602081019050620005cc565b868310156200061357848901516200060f601f89168262000509565b8355505b6001600288020188555050505b505050505050565b62000633816200026e565b82525050565b5f6020820190506200064e5f83018462000628565b92915050565b608051612b91620006745f395f81816106da01526108ea0152612b915ff3fe608060405234801561000f575f80fd5b5060043610610135575f3560e01c8063715018a6116100b6578063b88d4fde1161007a578063b88d4fde14610337578063c49455c114610353578063c6c0572d1461036f578063c87b56dd1461039f578063e985e9c5146103cf578063f2fde38b146103ff57610135565b8063715018a6146102b957806387190348146102c35780638da5cb5b146102df57806395d89b41146102fd578063a22cb4651461031b57610135565b806323b872dd116100fd57806323b872dd146102035780632b7ac3f31461021f57806342842e0e1461023d5780636352211e1461025957806370a082311461028957610135565b806301ffc9a71461013957806306fdde0314610169578063081812fc14610187578063095ea7b3146101b757806322d9730c146101d3575b5f80fd5b610153600480360381019061014e9190611d3c565b61041b565b6040516101609190611d81565b60405180910390f35b6101716104fc565b60405161017e9190611e24565b60405180910390f35b6101a1600480360381019061019c9190611e77565b61058b565b6040516101ae9190611ee1565b60405180910390f35b6101d160048036038101906101cc9190611f24565b6105a6565b005b6101ed60048036038101906101e89190611e77565b6105bc565b6040516101fa9190611d81565b60405180910390f35b61021d60048036038101906102189190611f62565b6105d9565b005b6102276106d8565b604051610234919061200d565b60405180910390f35b61025760048036038101906102529190611f62565b6106fc565b005b610273600480360381019061026e9190611e77565b61071b565b6040516102809190611ee1565b60405180910390f35b6102a3600480360381019061029e9190612026565b61072c565b6040516102b09190612060565b60405180910390f35b6102c16107e2565b005b6102dd60048036038101906102d89190612255565b6107f5565b005b6102e7610a6d565b6040516102f49190611ee1565b60405180910390f35b610305610a95565b6040516103129190611e24565b60405180910390f35b610335600480360381019061033091906122e5565b610b25565b005b610351600480360381019061034c91906123d3565b610b3b565b005b61036d60048036038101906103689190611e77565b610b60565b005b61038960048036038101906103849190611e77565b610bc1565b6040516103969190611d81565b60405180910390f35b6103b960048036038101906103b49190611e77565b610bde565b6040516103c69190611e24565b60405180910390f35b6103e960048036038101906103e49190612453565b610c44565b6040516103f69190611d81565b60405180910390f35b61041960048036038101906104149190612026565b610cd2565b005b5f7f80ac58cd000000000000000000000000000000000000000000000000000000007bffffffffffffffffffffffffffffffffffffffffffffffffffffffff1916827bffffffffffffffffffffffffffffffffffffffffffffffffffffffff191614806104e557507f5b5e139f000000000000000000000000000000000000000000000000000000007bffffffffffffffffffffffffffffffffffffffffffffffffffffffff1916827bffffffffffffffffffffffffffffffffffffffffffffffffffffffff1916145b806104f557506104f482610d56565b5b9050919050565b60605f805461050a906124be565b80601f0160208091040260200160405190810160405280929190818152602001828054610536906124be565b80156105815780601f1061055857610100808354040283529160200191610581565b820191905f5260205f20905b81548152906001019060200180831161056457829003601f168201915b5050505050905090565b5f61059582610dbf565b5061059f82610e45565b9050919050565b6105b882826105b3610e7e565b610e85565b5050565b6008602052805f5260405f205f915054906101000a900460ff1681565b5f73ffffffffffffffffffffffffffffffffffffffff168273ffffffffffffffffffffffffffffffffffffffff1603610649575f6040517f64a0ae920000000000000000000000000000000000000000000000000000000081526004016106409190611ee1565b60405180910390fd5b5f61065c8383610657610e7e565b610e97565b90508373ffffffffffffffffffffffffffffffffffffffff168173ffffffffffffffffffffffffffffffffffffffff16146106d2578382826040517f64283d7b0000000000000000000000000000000000000000000000000000000081526004016106c9939291906124ee565b60405180910390fd5b50505050565b7f000000000000000000000000000000000000000000000000000000000000000081565b61071683838360405180602001604052805f815250610b3b565b505050565b5f61072582610dbf565b9050919050565b5f8073ffffffffffffffffffffffffffffffffffffffff168273ffffffffffffffffffffffffffffffffffffffff160361079d575f6040517f89c62b640000000000000000000000000000000000000000000000000000000081526004016107949190611ee1565b60405180910390fd5b60035f8373ffffffffffffffffffffffffffffffffffffffff1673ffffffffffffffffffffffffffffffffffffffff1681526020019081526020015f20549050919050565b6107ea610f5d565b6107f35f610fe4565b565b5f815f6002811061080957610808612523565b5b602002015190505f8260016002811061082557610824612523565b5b6020020151905060085f8281526020019081526020015f205f9054906101000a900460ff16610889576040517f08c379a0000000000000000000000000000000000000000000000000000000008152600401610880906125c0565b60405180910390fd5b60075f8381526020019081526020015f205f9054906101000a900460ff16156108e7576040517f08c379a00000000000000000000000000000000000000000000000000000000081526004016108de90612628565b60405180910390fd5b5f7f000000000000000000000000000000000000000000000000000000000000000073ffffffffffffffffffffffffffffffffffffffff1663f5c9d69e888888886040518563ffffffff1660e01b815260040161094794939291906127e1565b602060405180830381865afa158015610962573d5f803e3d5ffd5b505050506040513d601f19601f82011682018060405250810190610986919061283a565b9050806109c8576040517f08c379a00000000000000000000000000000000000000000000000000000000081526004016109bf906128af565b60405180910390fd5b600160075f8581526020019081526020015f205f6101000a81548160ff0219169083151502179055505f60095f815480929190610a04906128fa565b919050559050610a1433826110a7565b803373ffffffffffffffffffffffffffffffffffffffff167f1a2878e84e1eb7db501e7d562ef8a4308c6bf20a3164db57d0ffb918f08d8e7d86604051610a5b9190612060565b60405180910390a35050505050505050565b5f60065f9054906101000a900473ffffffffffffffffffffffffffffffffffffffff16905090565b606060018054610aa4906124be565b80601f0160208091040260200160405190810160405280929190818152602001828054610ad0906124be565b8015610b1b5780601f10610af257610100808354040283529160200191610b1b565b820191905f5260205f20905b815481529060010190602001808311610afe57829003601f168201915b5050505050905090565b610b37610b30610e7e565b838361119a565b5050565b610b468484846105d9565b610b5a610b51610e7e565b85858585611373565b50505050565b610b68610f5d565b600160085f8381526020019081526020015f205f6101000a81548160ff021916908315150217905550807f7512b117f383213addc5fddb3abb80607c58e77ecd1536d6ee6bf3dd78b3608960405160405180910390a250565b6007602052805f5260405f205f915054906101000a900460ff1681565b6060610be982610dbf565b505f610bf361151f565b90505f815111610c115760405180602001604052805f815250610c3c565b80610c1b84611535565b604051602001610c2c92919061297b565b6040516020818303038152906040525b915050919050565b5f60055f8473ffffffffffffffffffffffffffffffffffffffff1673ffffffffffffffffffffffffffffffffffffffff1681526020019081526020015f205f8373ffffffffffffffffffffffffffffffffffffffff1673ffffffffffffffffffffffffffffffffffffffff1681526020019081526020015f205f9054906101000a900460ff16905092915050565b610cda610f5d565b5f73ffffffffffffffffffffffffffffffffffffffff168173ffffffffffffffffffffffffffffffffffffffff1603610d4a575f6040517f1e4fbdf7000000000000000000000000000000000000000000000000000000008152600401610d419190611ee1565b60405180910390fd5b610d5381610fe4565b50565b5f7f01ffc9a7000000000000000000000000000000000000000000000000000000007bffffffffffffffffffffffffffffffffffffffffffffffffffffffff1916827bffffffffffffffffffffffffffffffffffffffffffffffffffffffff1916149050919050565b5f80610dca836115ff565b90505f73ffffffffffffffffffffffffffffffffffffffff168173ffffffffffffffffffffffffffffffffffffffff1603610e3c57826040517f7e273289000000000000000000000000000000000000000000000000000000008152600401610e339190612060565b60405180910390fd5b80915050919050565b5f60045f8381526020019081526020015f205f9054906101000a900473ffffffffffffffffffffffffffffffffffffffff169050919050565b5f33905090565b610e928383836001611638565b505050565b5f80610ea2846115ff565b90505f73ffffffffffffffffffffffffffffffffffffffff168173ffffffffffffffffffffffffffffffffffffffff161480610f0957505f73ffffffffffffffffffffffffffffffffffffffff168573ffffffffffffffffffffffffffffffffffffffff16145b610f48576040517f08c379a0000000000000000000000000000000000000000000000000000000008152600401610f3f90612a0e565b60405180910390fd5b610f538585856117f7565b9150509392505050565b610f65610e7e565b73ffffffffffffffffffffffffffffffffffffffff16610f83610a6d565b73ffffffffffffffffffffffffffffffffffffffff1614610fe257610fa6610e7e565b6040517f118cdaa7000000000000000000000000000000000000000000000000000000008152600401610fd99190611ee1565b60405180910390fd5b565b5f60065f9054906101000a900473ffffffffffffffffffffffffffffffffffffffff1690508160065f6101000a81548173ffffffffffffffffffffffffffffffffffffffff021916908373ffffffffffffffffffffffffffffffffffffffff1602179055508173ffffffffffffffffffffffffffffffffffffffff168173ffffffffffffffffffffffffffffffffffffffff167f8be0079c531659141344cd1fd0a4f28419497f9722a3daafe3b4186f6b6457e060405160405180910390a35050565b5f73ffffffffffffffffffffffffffffffffffffffff168273ffffffffffffffffffffffffffffffffffffffff1603611117575f6040517f64a0ae9200000000000000000000000000000000000000000000000000000000815260040161110e9190611ee1565b60405180910390fd5b5f61112383835f610e97565b90505f73ffffffffffffffffffffffffffffffffffffffff168173ffffffffffffffffffffffffffffffffffffffff1614611195575f6040517f73c6ac6e00000000000000000000000000000000000000000000000000000000815260040161118c9190611ee1565b60405180910390fd5b505050565b5f73ffffffffffffffffffffffffffffffffffffffff168373ffffffffffffffffffffffffffffffffffffffff160361120a575f6040517fa9fbf51f0000000000000000000000000000000000000000000000000000000081526004016112019190611ee1565b60405180910390fd5b5f73ffffffffffffffffffffffffffffffffffffffff168273ffffffffffffffffffffffffffffffffffffffff160361127a57816040517f5b08ba180000000000000000000000000000000000000000000000000000000081526004016112719190611ee1565b60405180910390fd5b8060055f8573ffffffffffffffffffffffffffffffffffffffff1673ffffffffffffffffffffffffffffffffffffffff1681526020019081526020015f205f8473ffffffffffffffffffffffffffffffffffffffff1673ffffffffffffffffffffffffffffffffffffffff1681526020019081526020015f205f6101000a81548160ff0219169083151502179055508173ffffffffffffffffffffffffffffffffffffffff168373ffffffffffffffffffffffffffffffffffffffff167f17307eab39ab6107e8899845ad3d59bd9653f200f220920489ca2b5937696c31836040516113669190611d81565b60405180910390a3505050565b5f8373ffffffffffffffffffffffffffffffffffffffff163b1115611518578273ffffffffffffffffffffffffffffffffffffffff1663150b7a02868685856040518563ffffffff1660e01b81526004016113d19493929190612a7e565b6020604051808303815f875af192505050801561140c57506040513d601f19601f820116820180604052508101906114099190612adc565b60015b61148d573d805f811461143a576040519150601f19603f3d011682016040523d82523d5f602084013e61143f565b606091505b505f81510361148557836040517f64a0ae9200000000000000000000000000000000000000000000000000000000815260040161147c9190611ee1565b60405180910390fd5b805160208201fd5b63150b7a0260e01b7bffffffffffffffffffffffffffffffffffffffffffffffffffffffff1916817bffffffffffffffffffffffffffffffffffffffffffffffffffffffff19161461151657836040517f64a0ae9200000000000000000000000000000000000000000000000000000000815260040161150d9190611ee1565b60405180910390fd5b505b5050505050565b606060405180602001604052805f815250905090565b60605f600161154384611a02565b0190505f8167ffffffffffffffff8111156115615761156061207d565b5b6040519080825280601f01601f1916602001820160405280156115935781602001600182028036833780820191505090505b5090505f82602083010190505b6001156115f4578080600190039150507f3031323334353637383961626364656600000000000000000000000000000000600a86061a8153600a85816115e9576115e8612b07565b5b0494505f85036115a0575b819350505050919050565b5f60025f8381526020019081526020015f205f9054906101000a900473ffffffffffffffffffffffffffffffffffffffff169050919050565b808061167057505f73ffffffffffffffffffffffffffffffffffffffff168273ffffffffffffffffffffffffffffffffffffffff1614155b156117a2575f61167f84610dbf565b90505f73ffffffffffffffffffffffffffffffffffffffff168373ffffffffffffffffffffffffffffffffffffffff16141580156116e957508273ffffffffffffffffffffffffffffffffffffffff168173ffffffffffffffffffffffffffffffffffffffff1614155b80156116fc57506116fa8184610c44565b155b1561173e57826040517fa9fbf51f0000000000000000000000000000000000000000000000000000000081526004016117359190611ee1565b60405180910390fd5b81156117a057838573ffffffffffffffffffffffffffffffffffffffff168273ffffffffffffffffffffffffffffffffffffffff167f8c5be1e5ebec7d5bd14f71427d1e84f3dd0314c0f7b2291e5b200ac8c7c3b92560405160405180910390a45b505b8360045f8581526020019081526020015f205f6101000a81548173ffffffffffffffffffffffffffffffffffffffff021916908373ffffffffffffffffffffffffffffffffffffffff16021790555050505050565b5f80611802846115ff565b90505f73ffffffffffffffffffffffffffffffffffffffff168373ffffffffffffffffffffffffffffffffffffffff161461184357611842818486611b53565b5b5f73ffffffffffffffffffffffffffffffffffffffff168173ffffffffffffffffffffffffffffffffffffffff16146118ce576118825f855f80611638565b600160035f8373ffffffffffffffffffffffffffffffffffffffff1673ffffffffffffffffffffffffffffffffffffffff1681526020019081526020015f205f82825403925050819055505b5f73ffffffffffffffffffffffffffffffffffffffff168573ffffffffffffffffffffffffffffffffffffffff161461194d57600160035f8773ffffffffffffffffffffffffffffffffffffffff1673ffffffffffffffffffffffffffffffffffffffff1681526020019081526020015f205f82825401925050819055505b8460025f8681526020019081526020015f205f6101000a81548173ffffffffffffffffffffffffffffffffffffffff021916908373ffffffffffffffffffffffffffffffffffffffff160217905550838573ffffffffffffffffffffffffffffffffffffffff168273ffffffffffffffffffffffffffffffffffffffff167fddf252ad1be2c89b69c2b068fc378daa952ba7f163c4a11628f55a4df523b3ef60405160405180910390a4809150509392505050565b5f805f90507a184f03e93ff9f4daa797ed6e38ed64bf6a1f0100000000000000008310611a5e577a184f03e93ff9f4daa797ed6e38ed64bf6a1f0100000000000000008381611a5457611a53612b07565b5b0492506040810190505b6d04ee2d6d415b85acef81000000008310611a9b576d04ee2d6d415b85acef81000000008381611a9157611a90612b07565b5b0492506020810190505b662386f26fc100008310611aca57662386f26fc100008381611ac057611abf612b07565b5b0492506010810190505b6305f5e1008310611af3576305f5e1008381611ae957611ae8612b07565b5b0492506008810190505b6127108310611b18576127108381611b0e57611b0d612b07565b5b0492506004810190505b60648310611b3b5760648381611b3157611b30612b07565b5b0492506002810190505b600a8310611b4a576001810190505b80915050919050565b611b5e838383611c16565b611c11575f73ffffffffffffffffffffffffffffffffffffffff168373ffffffffffffffffffffffffffffffffffffffff1603611bd257806040517f7e273289000000000000000000000000000000000000000000000000000000008152600401611bc99190612060565b60405180910390fd5b81816040517f177e802f000000000000000000000000000000000000000000000000000000008152600401611c08929190612b34565b60405180910390fd5b505050565b5f8073ffffffffffffffffffffffffffffffffffffffff168373ffffffffffffffffffffffffffffffffffffffff1614158015611ccd57508273ffffffffffffffffffffffffffffffffffffffff168473ffffffffffffffffffffffffffffffffffffffff161480611c8e5750611c8d8484610c44565b5b80611ccc57508273ffffffffffffffffffffffffffffffffffffffff16611cb483610e45565b73ffffffffffffffffffffffffffffffffffffffff16145b5b90509392505050565b5f604051905090565b5f80fd5b5f80fd5b5f7fffffffff0000000000000000000000000000000000000000000000000000000082169050919050565b611d1b81611ce7565b8114611d25575f80fd5b50565b5f81359050611d3681611d12565b92915050565b5f60208284031215611d5157611d50611cdf565b5b5f611d5e84828501611d28565b91505092915050565b5f8115159050919050565b611d7b81611d67565b82525050565b5f602082019050611d945f830184611d72565b92915050565b5f81519050919050565b5f82825260208201905092915050565b5f5b83811015611dd1578082015181840152602081019050611db6565b5f8484015250505050565b5f601f19601f8301169050919050565b5f611df682611d9a565b611e008185611da4565b9350611e10818560208601611db4565b611e1981611ddc565b840191505092915050565b5f6020820190508181035f830152611e3c8184611dec565b905092915050565b5f819050919050565b611e5681611e44565b8114611e60575f80fd5b50565b5f81359050611e7181611e4d565b92915050565b5f60208284031215611e8c57611e8b611cdf565b5b5f611e9984828501611e63565b91505092915050565b5f73ffffffffffffffffffffffffffffffffffffffff82169050919050565b5f611ecb82611ea2565b9050919050565b611edb81611ec1565b82525050565b5f602082019050611ef45f830184611ed2565b92915050565b611f0381611ec1565b8114611f0d575f80fd5b50565b5f81359050611f1e81611efa565b92915050565b5f8060408385031215611f3a57611f39611cdf565b5b5f611f4785828601611f10565b9250506020611f5885828601611e63565b9150509250929050565b5f805f60608486031215611f7957611f78611cdf565b5b5f611f8686828701611f10565b9350506020611f9786828701611f10565b9250506040611fa886828701611e63565b9150509250925092565b5f819050919050565b5f611fd5611fd0611fcb84611ea2565b611fb2565b611ea2565b9050919050565b5f611fe682611fbb565b9050919050565b5f611ff782611fdc565b9050919050565b61200781611fed565b82525050565b5f6020820190506120205f830184611ffe565b92915050565b5f6020828403121561203b5761203a611cdf565b5b5f61204884828501611f10565b91505092915050565b61205a81611e44565b82525050565b5f6020820190506120735f830184612051565b92915050565b5f80fd5b7f4e487b71000000000000000000000000000000000000000000000000000000005f52604160045260245ffd5b6120b382611ddc565b810181811067ffffffffffffffff821117156120d2576120d161207d565b5b80604052505050565b5f6120e4611cd6565b90506120f082826120aa565b919050565b5f67ffffffffffffffff82111561210f5761210e61207d565b5b602082029050919050565b5f80fd5b5f61213061212b846120f5565b6120db565b9050806020840283018581111561214a5761214961211a565b5b835b81811015612173578061215f8882611e63565b84526020840193505060208101905061214c565b5050509392505050565b5f82601f83011261219157612190612079565b5b600261219e84828561211e565b91505092915050565b5f67ffffffffffffffff8211156121c1576121c061207d565b5b602082029050919050565b5f6121de6121d9846121a7565b6120db565b905080604084028301858111156121f8576121f761211a565b5b835b81811015612221578061220d888261217d565b8452602084019350506040810190506121fa565b5050509392505050565b5f82601f83011261223f5761223e612079565b5b600261224c8482856121cc565b91505092915050565b5f805f80610140858703121561226e5761226d611cdf565b5b5f61227b8782880161217d565b945050604061228c8782880161222b565b93505060c061229d8782880161217d565b9250506101006122af8782880161217d565b91505092959194509250565b6122c481611d67565b81146122ce575f80fd5b50565b5f813590506122df816122bb565b92915050565b5f80604083850312156122fb576122fa611cdf565b5b5f61230885828601611f10565b9250506020612319858286016122d1565b9150509250929050565b5f80fd5b5f67ffffffffffffffff8211156123415761234061207d565b5b61234a82611ddc565b9050602081019050919050565b828183375f83830152505050565b5f61237761237284612327565b6120db565b90508281526020810184848401111561239357612392612323565b5b61239e848285612357565b509392505050565b5f82601f8301126123ba576123b9612079565b5b81356123ca848260208601612365565b91505092915050565b5f805f80608085870312156123eb576123ea611cdf565b5b5f6123f887828801611f10565b945050602061240987828801611f10565b935050604061241a87828801611e63565b925050606085013567ffffffffffffffff81111561243b5761243a611ce3565b5b612447878288016123a6565b91505092959194509250565b5f806040838503121561246957612468611cdf565b5b5f61247685828601611f10565b925050602061248785828601611f10565b9150509250929050565b7f4e487b71000000000000000000000000000000000000000000000000000000005f52602260045260245ffd5b5f60028204905060018216806124d557607f821691505b6020821081036124e8576124e7612491565b5b50919050565b5f6060820190506125015f830186611ed2565b61250e6020830185612051565b61251b6040830184611ed2565b949350505050565b7f4e487b71000000000000000000000000000000000000000000000000000000005f52603260045260245ffd5b7f496e76616c6964206f7220756e6b6e6f776e204b594320636f6d6d69746d656e5f8201527f7400000000000000000000000000000000000000000000000000000000000000602082015250565b5f6125aa602183611da4565b91506125b582612550565b604082019050919050565b5f6020820190508181035f8301526125d78161259e565b9050919050565b7f4b59432063726564656e7469616c20616c7265616479207573656400000000005f82015250565b5f612612601b83611da4565b915061261d826125de565b602082019050919050565b5f6020820190508181035f83015261263f81612606565b9050919050565b5f60029050919050565b5f81905092915050565b5f819050919050565b61266c81611e44565b82525050565b5f61267d8383612663565b60208301905092915050565b5f602082019050919050565b61269e81612646565b6126a88184612650565b92506126b38261265a565b805f5b838110156126e35781516126ca8782612672565b96506126d583612689565b9250506001810190506126b6565b505050505050565b5f60029050919050565b5f81905092915050565b5f819050919050565b5f81905092915050565b61271b81612646565b6127258184612708565b92506127308261265a565b805f5b838110156127605781516127478782612672565b965061275283612689565b925050600181019050612733565b505050505050565b5f6127738383612712565b60408301905092915050565b5f602082019050919050565b612794816126eb565b61279e81846126f5565b92506127a9826126ff565b805f5b838110156127d95781516127c08782612768565b96506127cb8361277f565b9250506001810190506127ac565b505050505050565b5f610140820190506127f55f830187612695565b612802604083018661278b565b61280f60c0830185612695565b61281d610100830184612695565b95945050505050565b5f81519050612834816122bb565b92915050565b5f6020828403121561284f5761284e611cdf565b5b5f61285c84828501612826565b91505092915050565b7f496e76616c6964205a4b2070726f6f66000000000000000000000000000000005f82015250565b5f612899601083611da4565b91506128a482612865565b602082019050919050565b5f6020820190508181035f8301526128c68161288d565b9050919050565b7f4e487b71000000000000000000000000000000000000000000000000000000005f52601160045260245ffd5b5f61290482611e44565b91507fffffffffffffffffffffffffffffffffffffffffffffffffffffffffffffffff8203612936576129356128cd565b5b600182019050919050565b5f81905092915050565b5f61295582611d9a565b61295f8185612941565b935061296f818560208601611db4565b80840191505092915050565b5f612986828561294b565b9150612992828461294b565b91508190509392505050565b7f536f756c626f756e6420746f6b656e3a207472616e73666572206e6f7420616c5f8201527f6c6f776564000000000000000000000000000000000000000000000000000000602082015250565b5f6129f8602583611da4565b9150612a038261299e565b604082019050919050565b5f6020820190508181035f830152612a25816129ec565b9050919050565b5f81519050919050565b5f82825260208201905092915050565b5f612a5082612a2c565b612a5a8185612a36565b9350612a6a818560208601611db4565b612a7381611ddc565b840191505092915050565b5f608082019050612a915f830187611ed2565b612a9e6020830186611ed2565b612aab6040830185612051565b8181036060830152612abd8184612a46565b905095945050505050565b5f81519050612ad681611d12565b92915050565b5f60208284031215612af157612af0611cdf565b5b5f612afe84828501612ac8565b91505092915050565b7f4e487b71000000000000000000000000000000000000000000000000000000005f52601260045260245ffd5b5f604082019050612b475f830185611ed2565b612b546020830184612051565b939250505056fea2646970667358221220aa6da09408c2fee80bc7cab0c9bee46d3c71da1d1b68437908b0a42e6223bd1364736f6c63430008180033",
  "linkReferences": {},
  "deployedLinkReferences": {}
}