{
  "_format": "hh-sol-artifact-1",
  "contractName": "Groth16Verifier",
  "sourceName": "contracts/Verifier.sol",
  "abi": [
    {
      "inputs": [
        {
          "internalType": "uint256[2]",
          "name": "_pA",
          "type": "uint256[2]"
        },
        {
          "internalType": "uint256[2][2]",
          "name": "_pB",
          "type": "uint256[2][2]"
        },
        {
          "internalType": "uint256[2]",
          "name": "_pC",
          "type": "uint256[2]"
        },
        {
          "internalType": "uint256[3]",
          "name": "_pubSignals",
          "type": "uint256[3]"
        }
      ],
      "name": "verifyProof",
      "outputs": [
        {
          "internalType": "bool",
          "name": "",
          "type": "bool"
        }
      ],
      "stateMutability": "view",
      "type": "function"
    }
  ],
  "bytecode": "0x608060405234801561000f575f80fd5b5061069d8061001d5f395ff3fe608060405234801561000f575f80fd5b5060043610610029575f3560e01c806311479fea1461002d575b5f80fd5b610047600480360381019061004291906105ce565b61005d565b604051610054919061064e565b60405180910390f35b5f61051d565b7f30644e72e131a029b85045b68181585d2833e84879b9709143e1f593f00000018110610092575f805260205ff35b50565b5f60405183815284602082015285604082015260408160608360076107d05a03fa9150816100c5575f805260205ff35b825160408201526020830151606082015260408360808360066107d05a03fa9150816100f3575f805260205ff35b505050505050565b5f608086015f87017f215d3e37a454c9ffafa9f08c048fb12a39f02e50032b67845c68f06b89c8135d81527f2783207c0714885581c930884a5394c4d7ea6644676e1f6faa8ac958b5a9908b602082015261019b5f8801357f0b529177655259b47bc0d3a9c886a3ab65693dac06b102b38040e7c15d73e3ec7f28628ee421c2121849d79b4421b5de44bc2a8b79ecf320f0a51536ea8c86fd4984610095565b6101eb60208801357f2bfb633902ccd32cf181c8d037fac87edf726600676567124b7497923033ed947f14b07eda990737ac0e9f07420b19b8bdf07a03b5425f6c33512865bec00a04e984610095565b61023b60408801357f271cc2b8d403640a97ecbbc270a6c67db0f942832c5221f9d5d9a8220bb567d17f0121db7ac698395f9f072ebcb5aba41b90f2018f58df0faee5d64a7f9f0f224884610095565b833582527f30644e72e131a029b85045b68181585d97816a916871ca8d3c208c16d87cfd4760208501357f30644e72e131a029b85045b68181585d97816a916871ca8d3c208c16d87cfd4703066020830152843560408301526020850135606083015260408501356080830152606085013560a08301527f0bc9347c147c0d681b5200557336952d192accc78371d0622ed08576141eda4060c08301527f2dc8b2cd34ba4de1e63f41eedd4035c9b55d63ea64852c7a39864e05780897fd60e08301527f2bb976a6423a362b1aeba8ff4a2f52c651d5fd2053cd5f05d5ad6485804a47e96101008301527f01fe6731a49f7d17855f3ff7206414f2dd9c9d06bedf663028fe31626f3453c06101208301527f23e4c2097bc8e9eceeeb2081d6e475e737bc674556344f5d038570c8dff7ff146101408301527f060c54875dd2468fbab01db5c4149bb938b6c5ce16112e838d89b3ffc3f4e0016101608301525f88015161018083015260205f018801516101a08301527f198e9393920d483a7260bfb731fb5d25f1aa493335a9e71297e485b7aef312c26101c08301527f1800deef121f1e76426a00665e5c4479674322d4f75edadd46debd5cd992f6ed6101e08301527f090689d0585ff075ec9e99ad690c3395bc4b313370b38ef355acdadcd122975b6102008301527f12c85ea5db8c6deb4aab71808dcb408fe3d1e7690c43d37b4ce6cc0166fa7daa610220830152853561024083015260208601356102608301527f28c4190b66c4ac97775aa864e092a60acf6004a2cd85d002f74cca30653dc5fb6102808301527f0824a73b7e521dd5286aadf8ea98056fe5fd9f772883b7364fba5a101bdc7f246102a08301527f3033e07c47e244fd5b91ee36cda9caf40704e7adbb34a536dce9a3235a1a94c76102c08301527f13404a9780b521aa956390d10443fcf6795a45dce7de7718c586d2c974b3214a6102e08301526020826103008460086107d05a03fa82518116935050505095945050505050565b60405161038081016040526105345f840135610063565b6105416020840135610063565b61054e6040840135610063565b61055b818486888a6100fb565b805f5260205ff35b5f80fd5b5f80fd5b5f8190508260206002028201111561058657610585610567565b5b92915050565b5f819050826040600202820111156105a7576105a6610567565b5b92915050565b5f819050826020600302820111156105c8576105c7610567565b5b92915050565b5f805f8061016085870312156105e7576105e6610563565b5b5f6105f48782880161056b565b94505060406106058782880161058c565b93505060c06106168782880161056b565b925050610100610628878288016105ad565b91505092959194509250565b5f8115159050919050565b61064881610634565b82525050565b5f6020820190506106615f83018461063f565b9291505056fea264697066735822122063f85dfd534f5a8e8f6335b80036279ab71a9f72231d2ff102273aa26f78a2be64736f6c63430008180033",
  "linkReferences": {},
  "deployedLinkReferences": {}
}